:10000000BEC00000D7C00000D5C00000D3C00000B3
:10001000D1C00000CFC00000CDC00000CBC00000A8
:10002000C9C00000C7C000005EC100009BC1000045
:10003000C1C00000BFC00000BDC00000BBC00000C8
:10004000B9C00000B7C00000B5C00000B3C00000D8
:10005000B1C00000AFC00000ADC00000ABC00000E8
:10006000A9C00000A7C00000A5C00000A3C00000F8
:10007000A1C000009FC000009DC000009BC0000008
:1000800099C0000097C0000095C0000093C0000018
:1000900091C000008FC000008DC000008BC0000028
:1000A00089C0000087C0000085C000000A00203021
:1000B000780030780000010000EC0012000200001F
:1000C000FE00220022000020011500210000100186
:1000D0000900030000350104010309043901140279
:1000E0000309044F0120000001C126001201000293
:1000F00000000020C016790400010102000109027D
:100100002200010100C032090400000103000000C8
:1001100009211101000122150007058303200001B8
:100120000631FF0974A1537508150026FF009520BC
:1001300009758102C004030904140359006F007596
:1001400000720020004E0061006D0065000000207C
:100150000359006F007500720020005500530042E3
:10016000002000440065007600690063006500001F
:100170000000010405060725242322212000112464
:100180001FBECFEFDAE0DEBFCDBF11E0A0E0B1E0EF
:10019000E2EDF6E002C005900D92A230B107D9F76A
:1001A00011E0A2E0B1E001C01D92A530B107E1F776
:1001B00002D08DC225CFEF92FF920F931F93CF9362
:1001C000DF93569A5E9832D080E44FD2209A219ADB
:1001D000299A80E06ED2D82FC92F81E06AD27C01A3
:1001E00082EB90E015D20D2F1C2FC80136D28EEA7B
:1001F00090E00ED2E701C70130D282E0003018074C
:1002000018F05E9A289A02C05E98289882E0C03062
:10021000D80710F0299A01C029988CEA90E0F8D10B
:10022000D8CF8091E80080FFFCCF089581E08093D3
:10023000D70080EA8093D80082E189BD09B400FE2E
:10024000FDCF80E98093D8001092E0001092020167
:100250008CE08093E20078940895909102019923B4
:1002600009F43DC09FB7F89423E02093E900209162
:100270000401222341F02091E80025FD02C09FBF28
:100280002EC0109204012091E4002C5F33E04091D5
:10029000E80045FD12C09FBF9091E400921721F441
:1002A00081E0809304011BC0909102019923C9F061
:1002B0009FB7F8943093E900EACF8093F1008091E2
:1002C000E80085FD06C08AE38093E80010920301F0
:1002D00003C082E0809303019FBF80E008958FEF09
:1002E00008958FEF08951F920F920FB60F92112469
:1002F0008F939F938091E1001092E10083FF0FC0E4
:100300001092E90091E09093EB001092EC0092E2E1
:100310009093ED0098E09093F0001092020182FF1C
:100320001AC0809102018823B1F0809103018823D3
:1003300091F0815080930301882369F483E08093D6
:10034000E90002C01092F1008091E80085FDFACF2B
:100350008AE38093E8009F918F910F900FBE0F90DA
:100360001F9018951F920F920FB60F921124EF92C3
:10037000FF920F931F932F933F934F935F936F932E
:100380007F938F939F93AF93BF93EF93FF93DF93ED
:10039000CF930F92CDB7DEB71092E9008091E800BD
:1003A00083FF1BC14091F1005091F1000091F100D9
:1003B00010E02091F100922F80E0082B192BE090A3
:1003C000F100FF242091F100922F80E0E82AF92A21
:1003D0002091F10030E06091F100962F80E0282B11
:1003E000392B82EF8093E800563009F053C08CEB34
:1003F00090E0AC0145505040FC01379765917491F5
:1004000060177107C9F4FA01659174916E157F0543
:1004100099F44E5F5F4FFA01859194914E5F5F4F63
:10042000FA0144912F3F310519F010F02FEF30E021
:10043000241750F4422F08C00796495F5F4FF0E041
:100440008D3E9F07C9F6C9C0AEEF2091E80030E0AD
:10045000B9016570707061157105B9F322FDC0C0F6
:10046000542F413208F050E29C01652F07C0F9017A
:100470002F5F3F4FE491E093F10061506623B9F79D
:10048000850F911D451BA093E8004423F1F65032DF
:10049000E1F2A6C0553041F48EEF8093E800C1DE52
:1004A00000680093E3009CC0593031F5442309F003
:1004B00094C0009302018EEF8093E80041E086EE45
:1004C00090E04093E900FC010196E491E093EB0099
:1004D000EE2369F09C012F5F3F4FFC0184918093D4
:1004E000EC00C9010196F90124912093ED004F5FC2
:1004F000453039F78EE146C0583049F4403809F0AC
:100500006CC08FDE809102018093F10016C05523EC
:10051000C1F4498386DE4981423851F4E092E90012
:100520009091EB0081E095FF80E01092E90001C01E
:1005300080E08093F1001092F1008EEF8093E8004C
:100540004FC0513019F0533009F047C04230F9F430
:1005500001151105E1F46E2D6F77862F81508430DF
:10056000B0F48EEF8093E8006093E9005330A9F176
:1005700089E18093EB0081E090E002C0880F991F31
:100580006A95E2F78093EA001092EA0029C05130A0
:1005900021F5413A11F5E114F104F9F43EEF8091AF
:1005A000E80090E0AC014570507041155105B9F379
:1005B00082FD16C0822F213208F080E2982F03C0FE
:1005C0001092F10091509923D9F7281B3093E8003D
:1005D000222329F7803219F303C081E28093EB00D4
:1005E0000F90CF91DF91FF91EF91BF91AF919F91CC
:1005F0008F917F916F915F914F913F912F911F91BB
:100600000F91FF90EF900F900FBE0F901F901895D5
:100610001F93CF93DF93EC01FE01219614911123D8
:1006200039F01A3011F48DE018DE812F16DEF4CF88
:10063000DF91CF911F9108958A3010F490E301C0AB
:1006400097E3890F0ACECF93C82F82958F70F4DF7E
:100650008C2F8F70F1DFCF910895CF93C82F892F02
:10066000F2DF8C2FF0DFCF910895807C8093000122
:10067000089596E890937A00982F907290689093DE
:100680007B008F7190910001892B80937C0086EC18
:1006900080937A0080917A0086FDFCCF20917800CB
:1006A00030917900932F80E030E0282B392BC9015D
:1006B00008958C3040F4E82FF0E0EF58FE4F84911D
:1006C000D8DF9C0102C020E030E0C9010895F89411
:0206D000FFCF5A
:0206D2004000E6
:00000001FF
