:10000000BFC00000D8C00000D6C00000D4C00000AF
:10001000D2C00000D0C00000CEC00000CCC00000A4
:10002000CAC00000C8C000008DC10000CAC10000E5
:10003000C2C00000C0C00000BEC00000BCC00000C4
:10004000BAC00000B8C00000B6C00000B4C00000D4
:10005000B2C00000B0C00000AEC00000ACC00000E4
:10006000AAC00000A8C00000A6C00000A4C00000F4
:10007000A2C00000A0C000009EC000009CC0000004
:100080009AC0000098C0000096C0000094C0000014
:1000900092C0000090C000008EC000008CC0000024
:1000A0008AC0000088C0000086C00000646F6E65D2
:1000B0000A000A0030780000010000EE0012000281
:1000C0000000000122002200002201150021000092
:1000D00012010900030000370104010309043B0178
:1000E0001402030904510120000001C1260012017D
:1000F000000200000020C016790400010102000186
:1001000009022200010100C03209040000010300BD
:1001100000000921110100012215000705830320B9
:1001200000010631FF0974A1537508150026FF0070
:10013000952009758102C004030904140359006F56
:10014000007500720020004E0061006D0065000027
:1001500000200359006F0075007200200055005305
:1001600000420020004400650076006900630065DD
:100170000000000001040506072524232221200099
:1001800011241FBECFEFDAE0DEBFCDBF11E0A0E04B
:10019000B1E0E0E3F7E002C005900D92A230B107B4
:1001A000D9F711E0A2E0B1E001C01D92A730B1077C
:1001B000E1F729D0BBC224CF81E0809302015E9A8F
:1001C0002A9A0895109202015E982A9808950F9332
:1001D0001F93CF93DF9300E010E0C0E0D0E084EB0A
:1001E00090E045D2CE0168D282EB90E040D22196D9
:1001F00001501040A1F78CEA90E039D2DF91CF9105
:100200001F910F9108951F93CF93DF93569A5E9895
:100210003CD080E459D2209A219A229A299A10E05F
:1002200080E076D2EC0181E073D222E0C030D207C8
:1002300018F0289A21E002C0289820E032E08030AF
:10024000930718F0299A81E002C0299880E01123D1
:1002500051F0882321F081E080930301E0CF1092D8
:100260000301B0DFDCCF222321F0A6DFB0DF11E0F5
:10027000D7CF8823A9F2A0DF81E080930301D0CFFC
:100280008091E80080FFFCCF089581E08093D70043
:1002900080EA8093D80082E189BD09B400FEFDCFD9
:1002A00080E98093D8001092E000109204018CE065
:1002B0008093E2007894089590910401992309F4C1
:1002C0003DC09FB7F89423E02093E90020910601F8
:1002D000222341F02091E80025FD02C09FBF2EC0DF
:1002E000109206012091E4002C5F33E04091E80079
:1002F00045FD12C09FBF9091E400921721F481E068
:10030000809306011BC0909104019923C9F09FB707
:10031000F8943093E900EACF8093F1008091E800EF
:1003200085FD06C08AE38093E8001092050103C0B2
:1003300082E0809305019FBF80E008958FEF0895CC
:100340008FEF08951F920F920FB60F9211248F9383
:100350009F938091E1001092E10083FF0FC0109203
:10036000E90091E09093EB001092EC0092E2909300
:10037000ED0098E09093F0001092040182FF1AC003
:10038000809104018823B1F080910501882391F0C8
:10039000815080930501882369F483E08093E9000C
:1003A00002C01092F1008091E80085FDFACF8AE347
:1003B0008093E8009F918F910F900FBE0F901F9038
:1003C00018951F920F920FB60F921124EF92FF9281
:1003D0000F931F932F933F934F935F936F937F934D
:1003E0008F939F93AF93BF93EF93FF93DF93CF933D
:1003F0000F92CDB7DEB71092E9008091E80083FF3D
:100400001BC14091F1005091F1000091F10010E00A
:100410002091F100922F80E0082B192BE090F10041
:10042000FF242091F100922F80E0E82AF92A209100
:10043000F10030E06091F100962F80E0282B392BFD
:1004400082EF8093E800563009F053C08EEB90E0C5
:10045000AC0145505040FC0137976591749160178D
:100460007107C9F4FA01659174916E157F0599F4CD
:100470004E5F5F4FFA01859194914E5F5F4FFA0195
:1004800044912F3F310519F010F02FEF30E0241781
:1004900050F4422F08C00796495F5F4FF0E08F3E4F
:1004A0009F07C9F6C9C0AEEF2091E80030E0B9015E
:1004B0006570707061157105B9F322FDC0C0542FCD
:1004C000413208F050E29C01652F07C0F9012F5F0F
:1004D0003F4FE491E093F10061506623B9F7850F37
:1004E000911D451BA093E8004423F1F65032E1F240
:1004F000A6C0553041F48EEF8093E800C1DE00685D
:100500000093E3009CC0593031F5442309F094C0B6
:10051000009304018EEF8093E80041E088EE90E0C4
:100520004093E900FC010196E491E093EB00EE2397
:1005300069F09C012F5F3F4FFC0184918093EC0098
:10054000C9010196F90124912093ED004F5F4530D8
:1005500039F78EE146C0583049F4403809F06CC094
:100560008FDE809104018093F10016C05523C1F401
:10057000498386DE4981423851F4E092E900909146
:10058000EB0081E095FF80E01092E90001C080E07F
:100590008093F1001092F1008EEF8093E8004FC03D
:1005A000513019F0533009F047C04230F9F40115C9
:1005B0001105E1F46E2D6F77862F81508430B0F4F1
:1005C0008EEF8093E8006093E9005330A9F189E150
:1005D0008093EB0081E090E002C0880F991F6A953C
:1005E000E2F78093EA001092EA0029C0513021F529
:1005F000413A11F5E114F104F9F43EEF8091E8007D
:1006000090E0AC014570507041155105B9F382FD81
:1006100016C0822F213208F080E2982F03C010927A
:10062000F10091509923D9F7281B3093E800222339
:1006300029F7803219F303C081E28093EB000F9019
:10064000CF91DF91FF91EF91BF91AF919F918F91EA
:100650007F916F915F914F913F912F911F910F91DA
:10066000FF90EF900F900FBE0F901F9018951F9363
:10067000CF93DF93EC01FE0121961491112339F001
:100680001A3011F48DE018DE812F16DEF4CFDF91E1
:10069000CF911F9108958A3010F490E301C097E341
:1006A000890F0ACECF93C82F82958F70F4DF8C2FDD
:1006B0008F70F1DFCF910895CF93C82F892FF2DF8C
:1006C0008C2FF0DFCF910895807C809300010895F6
:1006D00096E890937A00982F9072906890937B00A0
:1006E0008F7190910001892B80937C0086EC809320
:1006F0007A0080917A0086FDFCCF209178003091BD
:100700007900932F80E030E0282B392BC901089520
:100710008C3040F4E82FF0E0ED58FE4F8491D8DFA4
:100720009C0102C020E030E0C9010895F894FFCF99
:02073000400087
:00000001FF
