:10000000BCC00000D5C00000D3C00000D1C00000BB
:10001000CFC00000CDC00000CBC00000C9C00000B0
:10002000C7C00000C5C00000D9C1000016C2000052
:10003000BFC00000BDC00000BBC00000B9C00000D0
:10004000B7C00000B5C00000B3C00000B1C00000E0
:10005000AFC00000ADC00000ABC00000A9C00000F0
:10006000A7C00000A5C00000A3C00000A1C0000000
:100070009FC000009DC000009BC0000099C0000010
:1000800097C0000095C0000093C0000091C0000020
:100090008FC000008DC000008BC0000089C0000030
:1000A00087C0000085C0000083C00000646F6E65DB
:1000B0000A0000010000E9001200020000FB00221B
:1000C000002200001D0115002100000D01090003A0
:1000D000000032010401030904360114020309047B
:1000E0004C0120000001C1260012010002000000A6
:1000F00020C016790400010102000109022200015A
:100100000100C032090400000103000000092111B0
:10011000010001221500070583032000010631FFBD
:100120000974A1537508150026FF009520097581F3
:1001300002C004030904140359006F007500720023
:1001400020004E0061006D00650000002003590092
:100150006F0075007200200055005300420020001F
:10016000440065007600690063006500000000013E
:100170000405060725242322212011241FBECFEFCA
:10018000DAE0DEBFCDBF11E0A0E0B1E0E6E9F7E0E4
:1001900002C005900D92A230B107D9F711E0A2E09C
:1001A000B1E001C01D92A830B107E1F775D0F1C2EE
:1001B00027CF81E0809304012A9A089510920401C8
:1001C0002A98089581E0809302015E9A2B9A0895FF
:1001D000109202015E982B980895EF92FF920F9370
:1001E0001F93CF93DF93EC018B0180E0C4D27C019D
:1001F00081E0C1D220E0E21622E0F20640F00115D3
:10020000110519F021E0F8012083289A06C0011594
:10021000110511F0F80110822898F2E080309F0754
:1002200030F0209711F081E08883299A04C020974C
:1002300009F018822998DF91CF911F910F91FF90BB
:10024000EF900895EF92FF920F931F93DF93CF9358
:100250000F92CDB7DEB700E010E07E010894E11CFC
:10026000F11C02C000E010E080E090E0B701B5DFD3
:1002700089818823B9F70F5F1F4F80E2013018078B
:1002800098F38CEA90E03FD20F90CF91DF911F91CD
:100290000F91FF90EF900895DF92EF92FF920F93EE
:1002A0001F93DF93CF9300D0CDB7DEB719821A82A8
:1002B000569A5E9836D080E43AD2209A219A229AB1
:1002C000239A299A82E0E82EF12CEC0EFD1E8E0175
:1002D0000F5F1F4FDD24D394C801B7017EDF8091EB
:1002E0000401882359F08981882319F0D0920301F1
:1002F00003C0109203016CDF61DFEECF8A81882397
:1003000021F060DF56DF9EDFE7CF8981882321F36C
:1003100059DFD0920301E0CF8091E80080FFFCCF4D
:10032000089581E08093D70080EA8093D80082E12D
:1003300089BD09B400FEFDCF80E98093D8001092FA
:10034000E000109205018CE08093E200789408951B
:1003500090910501992309F43DC09FB7F89423E0DB
:100360002093E90020910701222341F02091E80029
:1003700025FD02C09FBF2EC0109207012091E4000E
:100380002C5F33E04091E80045FD12C09FBF909183
:10039000E400921721F481E0809307011BC0909143
:1003A00005019923C9F09FB7F8943093E900EACF8B
:1003B0008093F1008091E80085FD06C08AE3809378
:1003C000E8001092060103C082E0809306019FBFFF
:1003D00080E008958FEF08958FEF08951F920F9298
:1003E0000FB60F9211248F939F938091E10010928A
:1003F000E10083FF0FC01092E90091E09093EB00C1
:100400001092EC0092E29093ED0098E09093F0004F
:100410001092050182FF1AC0809105018823B1F076
:1004200080910601882391F08150809306018823F2
:1004300069F483E08093E90002C01092F10080919A
:10044000E80085FDFACF8AE38093E8009F918F91C1
:100450000F900FBE0F901F9018951F920F920FB61E
:100460000F921124EF92FF920F931F932F933F93BC
:100470004F935F936F937F938F939F93AF93BF93AC
:10048000EF93FF93DF93CF930F92CDB7DEB7109228
:10049000E9008091E80083FF1BC14091F100509179
:1004A000F1000091F10010E02091F100922F80E026
:1004B000082B192BE090F100FF242091F100922FDE
:1004C00080E0E82AF92A2091F10030E06091F10003
:1004D000962F80E0282B392B82EF8093E80056304E
:1004E00009F053C089EB90E0AC0145505040FC014D
:1004F00037976591749160177107C9F4FA01659196
:1005000074916E157F0599F44E5F5F4FFA018591E6
:1005100094914E5F5F4FFA0144912F3F310519F0DE
:1005200010F02FEF30E0241750F4422F08C0079648
:10053000495F5F4FF0E08A3E9F07C9F6C9C0AEEF42
:100540002091E80030E0B9016570707061157105A7
:10055000B9F322FDC0C0542F413208F050E29C0193
:10056000652F07C0F9012F5F3F4FE491E093F10041
:1005700061506623B9F7850F911D451BA093E800D4
:100580004423F1F65032E1F2A6C0553041F48EEF2B
:100590008093E800C1DE00680093E3009CC05930FE
:1005A00031F5442309F094C0009305018EEF809348
:1005B000E80041E083EE90E04093E900FC01019601
:1005C000E491E093EB00EE2369F09C012F5F3F4F35
:1005D000FC0184918093EC00C9010196F9012491FA
:1005E0002093ED004F5F453039F78EE146C058301B
:1005F00049F4403809F06CC08FDE8091050180938A
:10060000F10016C05523C1F4498386DE4981423882
:1006100051F4E092E9009091EB0081E095FF80E0D9
:100620001092E90001C080E08093F1001092F10087
:100630008EEF8093E8004FC0513019F0533009F02D
:1006400047C04230F9F401151105E1F46E2D6F77C2
:10065000862F81508430B0F48EEF8093E800609351
:10066000E9005330A9F189E18093EB0081E090E04B
:1006700002C0880F991F6A95E2F78093EA001092F2
:10068000EA0029C0513021F5413A11F5E114F10495
:10069000F9F43EEF8091E80090E0AC0145705070B5
:1006A00041155105B9F382FD16C0822F213208F0A1
:1006B00080E2982F03C01092F10091509923D9F74E
:1006C000281B3093E800222329F7803219F303C056
:1006D00081E28093EB000F90CF91DF91FF91EF913A
:1006E000BF91AF919F918F917F916F915F914F914A
:1006F0003F912F911F910F91FF90EF900F900FBEA0
:100700000F901F9018951F93CF93DF93EC01FE017C
:1007100021961491112339F01A3011F48DE018DE6E
:10072000812F16DEF4CFDF91CF911F910895807C49
:1007300080930001089596E890937A00982F907224
:10074000906890937B008F7190910001892B80932A
:100750007C0086EC80937A0080917A0086FDFCCF45
:100760002091780030917900932F80E030E0282BA1
:10077000392BC90108958C3040F4E82FF0E0E2599C
:10078000FE4F8491D8DF9C0102C020E030E0C90117
:060790000895F894FFCF6C
:02079600400021
:00000001FF
