:100000004BC0000066C0000064C0000062C0000079
:1000100060C000005EC000005CC000005AC000006C
:1000200058C0000056C0000054C0000052C000007C
:1000300050C000004EC000004CC000004AC000008C
:1000400048C0000046C0000044C0000042C000009C
:1000500040C000003EC000003CC000003AC00000AC
:1000600038C0000036C0000034C0000032C00000BC
:1000700030C000002EC000002CC000002AC00000CC
:1000800028C0000026C0000024C0000022C00000DC
:1000900020C000001EC0000011241FBECFEFD0E220
:1000A000DEBFCDBF11E0A0E0B1E0ECEDF5E000E097
:1000B0000BBF02C007900D92A030B107D9F711E035
:1000C000A0E0B1E001C01D92A530B107E1F702D078
:1000D00083C296CF1F93CF93DF93569A8FEF80936F
:1000E000000182E090E0C9D082E090E01AD26091F5
:1000F000000182E090E070E02FD283E090E0BDD07C
:1001000083E090E00ED26091000183E090E070E027
:1001100023D286E190E0B1D086E190E002D26091F6
:10012000000186E190E070E017D287E190E0A5D071
:1001300087E190E0F6D16091000187E190E070E006
:100140000BD288E190E099D088E190E0EAD160910B
:10015000000188E190E070E0FFD184E090E08DD074
:1001600084E090E0DED16091000184E090E070E0F6
:10017000F3D181E190E081D081E190E0D2D1609132
:10018000000181E190E070E0E7D182E190E075D07C
:1001900082E190E0C6D16091000182E190E070E0E0
:1001A000DBD183E190E069D083E190E0BAD1609146
:1001B000000183E190E070E0CFD110920101109234
:1001C0000201109203011092040110E0CFEFD0E081
:1001D0008091010190910201A0910301B09104016D
:1001E00080519742A040B040C8F4112311F45E9AA8
:1001F00001C05E988091010190910201A0910301DC
:10020000B09104010196A11DB11D8093010190934D
:100210000201A0930301B0930401DACF109510926C
:1002200001011092020110920301109204018091C9
:1002300000018F5F809300016091000182E090E0F7
:1002400070E08AD180910001BE01681B710983E0D2
:1002500090E082D16091000186E190E070E07CD175
:100260006091000187E190E070E076D1609100013B
:1002700081E190E070E070D1ABCF982F8250823056
:1002800070F4923021F4279A84B5806803C0509AA4
:1002900084B5806284BD84B5836084BD0895892F50
:1002A00086518230C0F4973129F4259A80918000DC
:1002B000806804C0269A80918000806280938000CC
:1002C00080918000816080938000809181008860AF
:1002D000809381000895983119F09430A1F407C0FB
:1002E000249A8091B00080688093B00006C0519A33
:1002F0008091B10080628093B1008091B0008360F2
:100300008093B0000895892F81518330F0F49331A8
:1003100029F43C9A8091900080680BC0923129F4B6
:100320003D9A80919000806204C03E9A8091900036
:10033000886080939000809190008160809390000D
:10034000809191008860809391000895882371F5D1
:1003500085B58E7F85BD85B58D7F85BD85B58B7F48
:1003600085BD613019F485B5816004C0623021F427
:1003700085B5826085BD0895633019F485B58360C5
:10038000F9CF643019F485B58460F4CF653019F481
:1003900085B58560EFCF663019F485B58660EACF04
:1003A000673009F0BDC085B58760E4CF8130E1F5E5
:1003B000809181008E7F80938100809181008D7F6C
:1003C00080938100809181008B7F809381006130D8
:1003D00021F480918100816024C0623021F48091F9
:1003E000810082601EC0633021F4809181008360AF
:1003F00018C0643021F480918100846012C065309F
:1004000021F48091810085600CC0663021F48091D8
:100410008100866006C0673009F082C0809181004B
:1004200087608093810008958230E1F58091B1006A
:100430008E7F8093B1008091B1008D7F8093B10059
:100440008091B1008B7F8093B100613021F4809165
:10045000B100816024C0623021F48091B1008260DB
:100460001EC0633021F48091B100836018C06430F5
:1004700021F48091B100846012C0653021F4809134
:10048000B10085600CC0663021F48091B1008660B7
:1004900006C0673009F044C08091B1008760809346
:1004A000B10008958330E1F5809191008E7F8093B3
:1004B0009100809191008D7F8093910080919100B7
:1004C0008B7F80939100613021F480919100816055
:1004D0001DC0623021F480919100826017C06330AA
:1004E00021F480919100836011C0643021F48091E7
:1004F000910084600BC0653021F48091910085608B
:1005000005C0663031F4809191008660809391003F
:100510000895673029F4809191008760809391005D
:100520000895982F8250823010F480E005C0892F02
:100530008651823018F481E065E006C0983111F0F0
:10054000943019F482E067E001CF9151933018F4B0
:1005500083E065E0FBCE0895282F8250823030F48E
:10056000223011F467BD089568BD0895822F865129
:10057000823068F470E0273129F470938900609329
:100580008800089570938B0060938A000895283145
:1005900019F0243039F403C06093B30008956093D8
:1005A000B4000895822F81518330A8F4233139F4A7
:1005B000862F90E09093990080939800089570E0C2
:1005C000223129F470939B0060939A0008957093F0
:0C05D0009D0060939C000895F894FFCFFC
:00000001FF
