:100000004CC4000068C4000066C4000064C4000062
:1000100062C4000060C400005EC400005CC4000054
:100020005AC4000058C400000C94D4080C940F0962
:1000300052C4000050C400004EC400004CC4000074
:100040004AC4000048C4000046C4000044C4000084
:1000500042C4000040C400003EC400003CC4000094
:100060003AC4000038C4000036C4000034C40000A4
:1000700032C4000030C400002EC400002CC40000B4
:100080002AC4000028C4000026C4000024C40000C4
:1000900022C4000020C40000B708B408B108AE08AC
:1000A000AB08A808A508A2089F089C08990896080C
:1000B000930890088D088A088708840881087E08BC
:1000C0007B087808750872086F086C08690866086C
:1000D000630860085D085A085708540851084E081C
:1000E0004B084808450842083F083C0839083608CC
:1000F000330830082D082A082708240821081E087C
:100100001B081808150812080F080C08090806082B
:1001100003080008FD07FA07F7070D0A0045786194
:100120006D706C65732028746F2D646F290D0A0043
:100130002A2A2A2A2A2A2A2A2A2A2A2A2A2A2A2A1F
:100140002A2A2A2A2A2A2A2A2A2A2A2A2A2A2A2A0F
:100150002A2A2A2A2A2A2A0D0A00537072696E6BEB
:100160006C65723F3A0947657473207374617475E6
:1001700073206F6620737072696E6B6C65720D0A06
:1001800000537072696E6B6C65722323233A097495
:1001900075726E73206F6E2F6F6666207365637461
:1001A000696F6E206F6620737072696E6B6C65721A
:1001B000730D0A004761726167653A090950756CF1
:1001C0007365732074686520476172616765206F8D
:1001D00070656E206F7220636C6F7365640D0A002A
:1001E00048564143233A090953657473207468657E
:1001F000204856414320746F206120737065636905
:100200006669632073746174650D0A004856414342
:100210003F3A090952657475726E7320485641431E
:10022000207374617475730D0A0054656D703F23FB
:10023000233A0967657473207468652074656D706E
:10024000657261747572652076616C7565206F6684
:1002500020746865207370656369666963207365DF
:100260006E736F720D0A0044616D7065723F2323D7
:100270003A095265706C69657320776865746865C2
:10028000722064616D706572206973206F70656E95
:10029000206F7220636C6F7365640D0A0044616D9A
:1002A0007065722323233A095475726E73206F6E42
:1002B00020616E64206F66662044616D7065720D0A
:1002C0000A002D68656C703A090970726F7669646E
:1002D00065732074686973206D656E750D0A004C36
:1002E000697374206F6620617661696C61626C6508
:1002F00020636F6D6D616E64730D0A0D0A004845D1
:100300004C50204920646F6E2774206B6E6F7720ED
:100310007768617420746F20646F0D0A000D0A2ADB
:100320002A2A2A2A2A2A2A2A2A2A2A2A2A2A2A2A2D
:100330002A2A2A2A2A2A2A2A2A2A2A2A2A2A2A2A1D
:100340002A2A2A2A2A2A0D0A000946616E20436FAA
:100350006D6D616E640D0A000D0A000946616E2024
:100360005072696E742053746174757320536563A1
:1003700074696F6E3E3E3E0D0A00090946616E20AB
:100380004F6E2F4F666620537461747573205365EA
:100390006374696F6E0D0A00090946616E2053701F
:1003A0006565642053746174757320536563746963
:1003B0006F6E0D0A000946616E2053746174757387
:1003C0002073656374696F6E0D0A0046616E205379
:1003D000656374696F6E0D0A00537072696E6B6CA1
:1003E00065722053656374696F6E0D0A000D0A0013
:1003F0000A0D0053657276657220636F6E74726FBA
:100400006C6C6564204F46460D0A00536572766534
:100410007220636F6E74726F6C6C65642046616EDF
:1004200020616E6420436F6F6C696E670D0A005324
:10043000657276657220636F6E74726F6C6C656442
:100440002046616E20616E642048656174696E6744
:100450000D0A0053657276657220636F6E74726F59
:100460006C6C65642046616E0D0A0053657276659A
:100470007220636F6E74726F6C6C6564206F666659
:100480000D0A00380D0A00340D0A00360D0A003539
:100490000D0A00370D0A00310D0A00330D0A003233
:1004A0000D0A00656E746572696E67204856414397
:1004B0000D0A0044616D70657220436C6F73652096
:1004C000436F6D706C6574652E0D0A000D0A005344
:1004D00074617274696E6720746F20636C6F7365EA
:1004E0002044616D7065720044616D706572204FCB
:1004F00070656E20436F6D706C6574652E0D0A001B
:100500000D0A004552524F523A31200D0A666F7261
:100510006D617420746F20736D616C6C2C20736539
:10052000652068656C7020666F722064657461690F
:100530006C730D0A000D0A00526563656976656487
:100540003A20000D0A003E20000D0A746F207265EB
:1005500063656976652067656E6572616C206865A4
:100560006C70207479706520222D68656C70220D86
:100570000A0D0A3E002A2A2A2A2A2A2A2A2A2A2A4E
:100580002A2A2A2A2A2A2A2A2A2A2A2A2A2A2A2ACB
:100590002A2A2A2A2A2A2A2A2A2A2A2A000D0A57F5
:1005A000656C636F6D6520746F20457069632043CF
:1005B0007562652053657269616C20436F6E747259
:1005C0006F6C2056657273696F6E20302E302E313D
:1005D0000D0A000D0A2A2A2A2A2A2A2A2A2A2A2A1F
:1005E0002A2A2A2A2A2A2A2A2A2A2A2A2A2A2A2A6B
:1005F0002A2A2A2A2A2A2A2A2A2A2A2A0000010002
:10060000003106120002000043064300030000868A
:100610000604010309048A061A02030904A6061641
:1006200003030904BE060C0001C1120180360181DA
:10063000361201000202000010C0167A0400010107
:1006400002030109024300020100C0320904000054
:10065000010202010005240010010524010101042A
:100660002402060524060001070582031000400944
:10067000040100020A000000070503024000000711
:10068000058402400000040309041A034C006500BD
:10069000760069002000420061006C006C00690077
:1006A0006E00670000001603550053004200200052
:1006B000530065007200690061006C0000000C03CB
:1006C0003100320033003400350000000D0A0054C0
:1006D000657374204F757470757473206F66204154
:1006E0004243443A0D0A00436C6F7365427574745B
:1006F0006F6E206973204C6F7720616E64204F709D
:10070000656E20427574746F6E2069732048494786
:10071000480D0A004F50454E425553206973204CF6
:100720004F5720616E6420434C4F534520427574EF
:10073000746F6E20697320484947480D0A002044B1
:10074000616D70657220436C6F7365204572726FC6
:10075000723A54494D454F55540D0A000D0A004D4B
:100760006F6454696D65723A20000D0A456E7465B8
:100770007220436C6F736544616D706572205365C0
:100780006374696F6E200D0A000D0A44616D706517
:10079000723A20000D0A456E746572204F70656EC6
:1007A00044616D7065722053656374696F6E200DCE
:1007B0000A000D0A44616D7065723A20004552527C
:1007C0004F5254454D500A0D0069734F6E203D3D08
:1007D00020300D0A0053656374696F6E20350D0A71
:1007E0000069734F6E203D3D20300D0A0053656354
:1007F00074696F6E20340D0A0069734F6E203D3DA1
:1008000020300D0A0053656374696F6E20330D0A42
:100810000069734F6E203D3D20300D0A0053656323
:1008200074696F6E20320D0A0069734F6E203D3D72
:1008300020300D0A0069734F6E203D3D20310D0AB6
:1008400000456E7465722053656374696F6E203164
:100850000D0A0069734F6E203D3D20310D0A005393
:10086000656374696F6E203D3D202730270D0A00B7
:1008700053656374696F6E206973203E20350D0ADD
:1008800000456E746572656420537072696E6B6C9E
:100890006572436E74726C0D0A0011241FBECFEF97
:1008A000D0E2DEBFCDBF11E0A0E0B1E0E6EAF1E2C8
:1008B00000E00BBF02C007900D92A431B107D9F739
:1008C00011E0A4E1B1E001C01D92A132B107E1F74E
:1008D00056D20C94D11094CB6F9A209A219A229AD6
:1008E0006E9A08959C01FB016AE070E00E94BD10C1
:1008F000805D8083C90164E670E00E94BD106AE0FB
:1009000070E00E94BD10605D6183C90168EE73E014
:100910000E94BD109C0164E670E00E94BD10605D05
:100920006283C90168EE73E00E94BD10605D63835D
:100930000895CF93DF93EC01FE01219684918823E3
:1009400011F0C5D2F9CFDF91CF910895FF920F93A7
:100950001F93DF93CF9300D000D000D0CDB7DEB788
:100960008C01F62E80910001882351F088E395E0F8
:10097000E0DFC8016F2D70E0ECD285E395E0D9DFB0
:1009800083E08F1518F083E095E0BEC1F801808107
:10099000843409F046C0769896819F3349F4808567
:1009A00080535AD690E0C096C4DF80E095E0ACC199
:1009B000F8018781B0EDFB2EF80E913319F4AAED02
:1009C000FA2EF80EF8018085803351F48F2DBFD6B2
:1009D00080910001882309F498C188EE94E094C1C5
:1009E00080910001882399F0F6E2FF0EF9828AE0F7
:1009F000F80EFA82E0EDFE0E8FEC94E09ADFCE0165
:100A0000019662E070E0A5D28CEC94E092DF8F2D2D
:100A100040D680910001882309F477C183EB94E0EC
:100A200073C1883409F09DC080910001882319F0BA
:100A300083EA94E07EDFF80184818F33B9F5209159
:100A40001F013091200121153105A9F462D58130B3
:100A500079F462D5813019F48FE994E055C15FD5FE
:100A6000813019F48BE994E04FC187E994E04CC1DF
:100A700083E994E049C180911D0190911E01019785
:100A800019F48FE894E040C18091190190911A0106
:100A9000019719F48BE894E037C12130310519F43E
:100AA00087E894E031C183E894E02EC1813381F47A
:100AB00080E048D580E056D580E034D580E062D52E
:100AC00080910001882309F420C18BE694E01CC1C9
:100AD000823381F480E036D580E044D581E022D5B0
:100AE00081E050D580910001882309F40EC183E58F
:100AF00094E00AC1833381F481E014D581E022D5EA
:100B000080E030D581E03ED580910001882309F452
:100B1000FCC08FE294E0F8C0843381F481E002D518
:100B200080E010D580E01ED581E02CD580910001B9
:100B3000882309F4EAC08BE094E0E6C0853309F02D
:100B4000E4C080E0EFD480E0FDD480E00BD581E00C
:100B500019D580910001882309F4D7C083EF93E071
:100B6000D3C08435C1F4769AF80184818983858164
:100B70008A8380EF93E0DDDECE01019648D68E01B8
:100B80000D5F1F4FB801AEDEC80164E070E0E1D137
:100B90008DEE93E0B9C0873411F4B8D4B6C0833574
:100BA00061F480910001882319F089ED93E0C1DEA2
:100BB000F8018185628590D7A8C0863409F068C0A5
:100BC00080910001882319F08BEC93E0B2DEF801EC
:100BD00083818F3309F03DC080910001882319F093
:100BE00085EB93E0A6DEF8018581833769F4809177
:100BF0000001882319F088E993E09BDEF8018481E5
:100C000090E00E94D90F0EC08F3671F480910001E0
:100C1000882319F08AE793E08CDEF801848190E064
:100C20000E94C70F182F04C081E08093140110E3C5
:100C300080910001882319F08BE593E07ADE1A8316
:100C40001B83CE01019662E070E083D188E593E0DA
:100C50005BC080538530C8F480910001882319F06F
:100C600089E493E066DEF80184819381803329F47E
:100C7000892F90E00E9417100BC0F8016581892F21
:100C800090E070E00E94471003C081E0809314015F
:100C9000F80180818D3221F48181883619F406C0F3
:100CA0008F3321F080911401882361F18DE193E06D
:100CB00040DE8EEF92E03DDE8FED92E03ADE82EC98
:100CC00092E037DE8DE992E034DE87E692E031DEB5
:100CD0008AE292E02EDE8CE092E02BDE80EE91E064
:100CE00028DE84EB91E025DE81E891E022DE8AE5D2
:100CF00091E01FDE80E391E01CDE8DE191E019DEE2
:100D0000109214018AE191E014DE26960FB6F89451
:100D1000DEBF0FBECDBFCF91DF911F910F91FF902E
:100D200008950F931F93CF93DF93EC01062F10E0EC
:100D30001CC095D09C018FEF2F3F380781F02D30DC
:100D40003105B9F02A303105A1F0C90180978F35FE
:100D5000910558F42993822FBAD01F5F06C07CD02A
:100D6000882331F01ED280FF03C0101710F301C09A
:100D70001FEF812FDF91CF911F910F910895EF9277
:100D8000FF921F93DF93CF93CDB7DEB7A0970FB637
:100D9000F894DEBF0FBECDBF82E04AD782E00E944A
:100DA0006C0F82E060E80E94870F80E8809361000A
:100DB0001092610091DDA2D3F5D387D60E949D10D9
:100DC00032D04AD08823E9F380E197E220E931E08C
:100DD000F9013197F1F70197D9F702C065D004C046
:100DE0007E010894E11CF11CDCD180FFF7CF83ED7C
:100DF00095E09FDD8DE995E09CDD85E795E099DD47
:100E000089E495E096DD86E495E093DDC70160E234
:100E100088DF182F8F3F41F383E495E08ADDC70117
:100E2000612F94DDF0CF81E88093D70080EA809332
:100E3000D80086E189BD09B400FEFDCF80E980932A
:100E4000D8001092E00010921501109216018CE06B
:100E50008093E200789408958091150108952FB74A
:100E6000F89480911501882369F083E08093E9006C
:100E70009BE68091E80085FD09C082FF03C0909346
:100E8000E800F7CF2FBF2FEF3FEF0CC09091F1009C
:100E90008091E80085FD03C08BE68093E8002FBFBA
:100EA000292F30E0C901089580911501882371F040
:100EB0009FB7F89483E08093E9002BE602C020936B
:100EC000E8008091E80085FDFACF9FBF0895482F84
:100ED000809115018823D9F12FB7F89484E080938D
:100EE000E90080911801882341F08091E80085FD98
:100EF00002C02FBF12C0109218019091E400975EBB
:100F000034E08091E80085FD13C02FBF8091E4009C
:100F1000891729F481E0809318018FEF089580915B
:100F200015018823A1F02FB7F8943093E900E9CF99
:100F30004093F1008091E80085FD03C08AE380932F
:100F4000E80085E0809317012FBF80E008958FEFC0
:100F50000895CF93DF93EC0180911501882309F464
:100F60001CC13FB7F89484E08093E9008091180198
:100F7000882309F408C18091E80085FD02C03FBFC5
:100F80000CC110921801FFC09091E400975E80910F
:100F9000E80085FD13C03FBF8091E400891721F46C
:100FA00081E080931801F9C080911501882309F42C
:100FB000F4C03FB7F894B093E900E9CF8091F20014
:100FC000242F281B822F90E06817790708F4262F1A
:100FD000822F90E08134910508F0C6C0845B9F4F5A
:100FE000FC01EE0FFF1F0590F491E02D099489910B
:100FF0008093F10089918093F10089918093F100B1
:1010000089918093F10089918093F1008991809377
:10101000F10089918093F10089918093F100899189
:101020008093F10089918093F10089918093F10080
:1010300089918093F10089918093F1008991809347
:10104000F10089918093F10089918093F100899159
:101050008093F10089918093F10089918093F10050
:1010600089918093F10089918093F1008991809317
:10107000F10089918093F10089918093F100899129
:101080008093F10089918093F10089918093F10020
:1010900089918093F10089918093F10089918093E7
:1010A000F10089918093F10089918093F1008991F9
:1010B0008093F10089918093F10089918093F100F0
:1010C00089918093F10089918093F10089918093B7
:1010D000F10089918093F10089918093F1008991C9
:1010E0008093F10089918093F10089918093F100C0
:1010F00089918093F10089918093F1008991809387
:10110000F10089918093F10089918093F100899198
:101110008093F10089918093F10089918093F1008F
:1011200089918093F10089918093F1008991809356
:10113000F10089918093F10089918093F100899168
:101140008093F10089918093F10089918093F1005F
:1011500089918093F10089918093F1008991809326
:10116000F10089918093F10089918093F100809141
:10117000E80085FD02C05093E800621B7109A0934E
:1011800017013FBF04C0B4E040E45AE3A5E0611595
:10119000710509F0F9CE80E001C08FEFDF91CF91AA
:1011A00008958091160108951F920F920FB60F9225
:1011B00011248F939F938091E1001092E100982F6A
:1011C00083FF11C01092E90081E08093EB00109240
:1011D000EC0082E18093ED0088E08093F0001092B3
:1011E00015011092160192FF13C0809115018823FA
:1011F00079F080911701882359F08150809317016D
:10120000882331F484E08093E9008AE38093E80046
:101210009F918F910F900FBE0F901F9018951F9266
:101220000F920FB60F920BB60F9211240F931F93CC
:101230002F933F934F935F936F937F938F939F93DE
:10124000AF93BF93EF93FF931092E9008091E80072
:1012500083FF3CC14091F1003091F1008091F10099
:10126000682F70E02091F100922F80E0682B792B9D
:101270008091F100A82FB0E02091F100922F80E042
:10128000A82BB92B1091F1000091F10082EF80930F
:10129000E800363009F05AC024E036E0A901455094
:1012A0005040F9013797859194918617970701F57A
:1012B000FA01859194918A179B07D1F49A012E5FC8
:1012C0003F4FF901659174912E5F3F4FF9014491B1
:1012D000212F30E0902F80E0282B392B2F3F310534
:1012E00019F010F02FEF30E0241758F4422F09C006
:1012F000295F3F4F495F5F4FF6E02E323F0789F687
:10130000E5C05EEF8091E800282F30E0C9018570CC
:101310009070892BB9F322FDDCC0342F413108F0E5
:1013200030E1232FCB0106C0FC010196E491E0934C
:10133000F10021502223C1F7630F711D431B50930D
:10134000E8004423F9F63031E9F2C3C0353061F4E6
:101350008EEF8093E8008091E80080FFFCCF862F1D
:1013600080688093E300B5C0393051F5442309F01B
:10137000ADC06093150110921601109217018EEF07
:101380008093E80087E296E021E02093E900FC01E9
:101390000196E491E093EB00EE2369F0AC014F5F1E
:1013A0005F4FFC0184918093EC00CA010196FA0121
:1013B00034913093ED002F5F253039F78EE181C0F5
:1013C000383061F4403809F081C08091E80080FF36
:1013D000FCCF809115018093F10050C0313289F427
:1013E000413A09F073C08091E80080FFFCCFE1E052
:1013F000F1E081918093F10081E0E830F807C9F7CE
:101400003DC03032A1F4413209F060C08091E80063
:1014100082FFFCCFE1E0F1E08091F100819381E077
:10142000E830F807C9F78BEF8093E80027C0323225
:1014300051F4413209F04AC0609316018091E800EE
:1014400080FFFCCF1BC03323E9F48091E80080FFCC
:10145000FCCF423811F080E00DC0A093E9008091EC
:10146000EB0090E025E0969587952A95E1F781704D
:101470001092E9008093F1001092F1008EEF8093BA
:10148000E80027C0313011F0333001F54230F1F47B
:10149000672BE1F42A2F2F77822F81508430B0F40C
:1014A0008EEF8093E8002093E900333079F089E1F2
:1014B0008093EB0081E090E002C0880F991F2A958D
:1014C000E2F78093EA001092EA0003C081E2809381
:1014D000EB00FF91EF91BF91AF919F918F917F9121
:1014E0006F915F914F913F912F911F910F910F90AD
:1014F0000BBE0F900FBE0F901F901895549A559ADF
:10150000569A579A39986998389808955C9A5C98D1
:10151000089586B1827008958CB18270089586B165
:1015200081700895813041F45D9A81E090E090935C
:10153000200180931F0108955D9810922001109260
:101540001F010895813041F45E9A81E090E090930C
:101550001E0180931D0108955E9810921E01109245
:101560001D010895813041F45F9A81E090E09093ED
:101570001A018093190108955F9810921A01109230
:1015800019010895813041F4709A81E090E09093C0
:101590001C0180931B010895709810921C011092F9
:1015A0001B010895269A259A249A509851980895D7
:1015B000EF92FF920F931F93DF93CF9300D000D051
:1015C000CDB7DEB7F82EF694F694F694082F077090
:1015D00006950695182F13701695EE24E394E822CD
:1015E00080E3E80EE98280EDE80E105D1A83105367
:1015F000005D0B83005380E3F80EFC8280EDF80E53
:101600008FEC96E096D9CE01019664E070E0A1DC03
:101610008CEC96E08ED981E0F81611F42A9A01C07C
:101620002A98013011F4299A01C02998113011F437
:10163000289A01C0289881E0E81611F4779A01C031
:1016400077980F900F900F900F90CF91DF911F918F
:101650000F91FF90EF900895ABDF89B189B189B107
:1016600099B181FD0BC090FF09C0809108018823CA
:1016700079F084E197E05DD980E0089580910801D8
:10168000882311F481E0089587EE96E052D981E035
:101690000895EF92FF920F931F93CF93DF93182F2C
:1016A00080910801882351F089E897E042D9812F81
:1016B00090E0C0960CDC8AE697E03BD9812F78DF7A
:1016C00088E893E120E931E0F9013197F1F70197DA
:1016D000D9F7812FC1DF813099F12E98C0E0D0E099
:1016E00080E9E82E81E0F82E2C9A812FB5DF082FB3
:1016F00088EE93E0F7013197F1F70197D9F72C982D
:10170000219680910801882361F08FE597E011D937
:10171000CE0160E370E031D5CB01D9DB8CE597E0F9
:1017200008D9013009F7C233D105F1F2C051D742CF
:1017300039F480910801882319F08EE397E0F9D8F5
:10174000DF91CF911F910F91FF90EF900895EF924D
:10175000FF921F93CF93DF93182F80910801882366
:1017600051F082EB97E0E5D8812F90E0C096AFDB97
:1017700084E997E0DED8812F1BDF88EE93E020E933
:1017800031E0F9013197F1F70197D9F7812F64DF43
:101790008823C9F02E9AC0E0D0E090E9E92E91E0CC
:1017A000F92E2C9A812F58DF28EE33E0F70131977C
:1017B000F1F721503040D1F72C982196882389F7F2
:1017C000C333D10570F7DF91CF911F91FF90EF9058
:1017D000089596E890937A00982F9072906890936D
:1017E0007B008F71806480937C0086EC80937A000C
:1017F00080917A0086FDFCCF20917800409179009D
:10180000942F80E030E0282B392BC9010895FC018A
:1018100080818033A9F58181803311F4779803C0EA
:10182000813339F4779A2898299880E0D2DF9C0197
:101830004AC1823311F4779803C0833319F4779A3D
:10184000289AF2CF843311F4779803C0853321F4BA
:10185000779A2898299AE9CF863311F4779803C0AC
:10186000873319F4779A289AF5CF883311F477984B
:1018700004C0893309F021C1779A289829981EC09D
:10188000813391F58181803311F4779803C08133DE
:1018900019F4779A289AF2CF823311F4779803C01B
:1018A000833319F4779A289808C0843311F4779811
:1018B00003C0853329F4779A289A299A81E0B6CF14
:1018C000863311F4779803C0873321F4779A2898E8
:1018D00029981FC0883311F4779804C0893309F020
:1018E000ECC0779A289AF4CF823391F581818033C6
:1018F00011F4779803C0813319F4779A289808C0B7
:10190000823311F4779803C0833329F4779A289AA5
:10191000299A82E08BCF843311F4779803C0853302
:1019200021F4779A289829981FC0863311F4779864
:1019300003C0873319F4779A289AF5CF883311F4C6
:10194000779804C0893309F0B8C0779A28980BC0FB
:101950008333A1F58181803311F4779803C08133FB
:1019600029F4779A289A299A83E060CF823311F478
:10197000779803C0833321F4779A289829981CC05C
:10198000843311F4779803C0853319F4779A289A31
:10199000F5CF863311F4779803C0873319F4779A1B
:1019A000289809C0883311F4779804C0893309F066
:1019B00084C0779A289A299A84E038CF843399F59D
:1019C0008181803311F4779803C0813321F4779AB1
:1019D000289829981BC0823311F4779803C0833369
:1019E00019F4779A289AF5CF843311F4779803C0C5
:1019F000853319F4779A289808C0863311F47798BC
:101A000003C0873329F4779A289A299A85E00ECF64
:101A1000883311F4779804C0893309F04EC0779A5F
:101A2000289829981EC0853389F58181803311F467
:101A3000779803C0813319F4779A289AF2CF8233CA
:101A400011F4779803C0833319F4779A289808C063
:101A5000843311F4779803C0853329F4779A289A50
:101A6000299A86E0E3CE863311F4779803C0873352
:101A700019F4779A289808C0883311F4779803C02E
:101A80008933D9F4779A289A299815C08633A9F40E
:101A90008181803311F4779803C0813319F4779AE8
:101AA000289808C0823311F4779803C0833329F44F
:101AB000779A289A299A87E0B9CE8DEB97E00E9411
:101AC000990420E030E0C90108953A9A3B9A239A9C
:101AD0002B9A439A429A08950F931F93182F062F1B
:101AE00080910901882321F081E898E00E949904FF
:101AF000163340F080910901882309F493C080E7F0
:101B000098E08EC01033B9F480910901882321F048
:101B10008FE598E00E949904013309F083C0809119
:101B20000901882321F083E598E00E9499044298F6
:101B300043982B987AC01133D9F4809109018823F6
:101B400021F081E498E00E94990480910901013319
:101B500049F4882321F085E398E00E9499042B9AA8
:101B600043982AC0882309F45DC089E298E058C0F0
:101B70001233A1F480910901882321F08DE198E0CE
:101B80000E949904013311F42B9815C0809109012A
:101B9000882309F447C081E198E042C01333A9F4D7
:101BA00080910901882321F085E098E00E94990442
:101BB000013321F42B9A439A429837C0809109014E
:101BC000882381F189EF97E02BC0143399F4809139
:101BD0000901882321F08DEE97E00E9499040133DA
:101BE00011F42B9814C0809109018823D9F081EE5B
:101BF00097E016C01533C9F480910901882321F0BC
:101C000085ED97E00E949904013321F42B9A4398C3
:101C1000429A0BC080910901882321F089EC97E05A
:101C20000E949904429A439A2B9A1F910F9108950A
:101C3000982F8250823070F4923021F4279A84B524
:101C4000806803C0509A84B5806284BD84B5836087
:101C500084BD0895892F86518230C0F4973129F4CC
:101C6000259A80918000806804C0269A8091800027
:101C700080628093800080918000816080938000EA
:101C8000809181008860809381000895983119F0D7
:101C90009430A1F407C0249A8091B00080688093AA
:101CA000B00006C0519A8091B10080628093B1006B
:101CB0008091B00083608093B0000895892F815196
:101CC0008330F0F4933129F43C9A8091900080683D
:101CD0000BC0923129F43D9A80919000806204C03B
:101CE0003E9A80919000886080939000809190004F
:101CF0008160809390008091910088608093910032
:101D00000895882371F585B58E7F85BD85B58D7F56
:101D100085BD85B58B7F85BD613019F485B5816042
:101D200004C0623021F485B5826085BD08956330BA
:101D300019F485B58360F9CF643019F485B58460F2
:101D4000F4CF653019F485B58560EFCF663019F4AE
:101D500085B58660EACF673009F0BDC085B587607C
:101D6000E4CF8130E1F5809181008E7F8093810006
:101D7000809181008D7F80938100809181008B7F95
:101D800080938100613021F480918100816024C0C2
:101D9000623021F48091810082601EC0633021F4A2
:101DA00080918100836018C0643021F480918100AB
:101DB000846012C0653021F48091810085600CC080
:101DC000663021F480918100866006C0673009F09A
:101DD00082C0809181008760809381000895823065
:101DE000E1F58091B1008E7F8093B1008091B100C8
:101DF0008D7F8093B1008091B1008B7F8093B10083
:101E0000613021F48091B100816024C0623021F4FE
:101E10008091B10082601EC0633021F48091B100D6
:101E2000836018C0643021F48091B100846012C0D6
:101E3000653021F48091B10085600CC0663021F4DA
:101E40008091B100866006C0673009F044C080917F
:101E5000B10087608093B10008958330E1F58091EF
:101E600091008E7F80939100809191008D7F80936F
:101E70009100809191008B7F80939100613021F4DB
:101E80008091910081601DC0623021F480919100A9
:101E9000826017C0633021F480919100836011C08B
:101EA000643021F48091910084600BC0653021F48E
:101EB00080919100856005C0663031F48091910079
:101EC0008660809391000895673029F48091910095
:101ED0008760809391000895982F8250823010F48B
:101EE00080E005C0892F8651823018F481E065E0DA
:101EF00006C0983111F0943019F482E067E001CF08
:101F00009151933018F483E065E0FBCE0895282FBB
:101F10008250823030F4223011F467BD089568BDDC
:101F20000895822F8651823068F470E0273129F4B9
:101F30007093890060938800089570938B0060937C
:101F40008A000895283119F0243039F403C06093D1
:101F5000B30008956093B4000895822F81518330B7
:101F6000A8F4233139F4862F90E090939900809360
:101F70009800089570E0223129F470939B006093DB
:101F80009A00089570939D0060939C00089580537B
:101F900019F480910A010895823019F480910C019E
:101FA0000895833019F480910D01089580910E01F8
:101FB0000895803319F480910F010895823319F444
:101FC000809111010895833319F4809112010895CD
:101FD000843311F08EE608958091130108958033C3
:101FE00021F1813311F48CE10895823311F488E3F7
:101FF0000895833311F485E50895843311F481E75E
:102000000895853311F48DE80895863311F48AEA32
:102010000895873311F486EC0895883311F482EE25
:102020000895893311F48FEF089580E00895805367
:1020300049F483E060E06BDF80E380930A018093E2
:102040000F0115C0823049F481E160E060DF80E378
:1020500080930C01809311010AC0833051F482E116
:1020600060E055DF10920D0180E38093120180E063
:102070000895843011F081E0089583E160E047DF46
:1020800080E380930E018093130180E008950F9305
:102090001F93982F062F80910A01813319F49033F2
:1020A00009F047C080910C01813321F4923311F083
:1020B00083E040C080910D01813321F4933311F00E
:1020C00084E038C080910E01813321F4943311F003
:1020D00085E030C0192F1053802F81DF682F112326
:1020E00041F481E380930A0183E011DF00930F0143
:1020F0001FC0123041F481E380930C0181E107DFBE
:102100000093110115C0133041F481E380930D0158
:1021100082E1FDDE009312010BC0143011F08FEF4D
:1021200009C081E380930D0183E1F1DE0093130187
:1021300001C081E01F910F91089583E079DD81E175
:1021400077DD82E175DD83E173DD83E060E0DFDE72
:1021500081E160E0DCDE82E160E0D9DE83E160E025
:10216000D6DE83E064E0CDDD81E164E0CADD82E1BA
:1021700064E0C7DD83E164E0C4CDAA1BBB1B51E171
:1021800007C0AA1FBB1FA617B70710F0A61BB70BE7
:10219000881F991F5A95A9F780959095BC01CD018C
:0621A0000895F894FFCF42
:1021A6000100E1000000000801013030303030301D
:0421B6003030303065
:00000001FF
